:020000040000FA
:0600000011EF04F01200F4
:020006001200E6
:0600080095EF01F012006B
:02000E000100EF
:0C00100053080000D00000000D000000AC
:04001C0071D9030E85
:10002000DF5C08E2FE0EDBCFE6FFF1EC03F0E55209
:10003000DF2AF5D7E5526BD1936A8A908A928A9427
:100040001200C80E59D9010EE66EE66A4AD9E66A70
:1000500048D9E66A46D9E66E44D9E66E42D9E66EDC
:100060008BEF01F04DD9FB0EDB50D880DF540FE34E
:10007000FC0EDBCFE6FFFD0EDBCFE6FFFE0EDBCF97
:10008000E6FF07D8E552E552E552DF2AECD7E55204
:100090003ED1D9CFE6FFE1CFD9FF090EE126DE6AD6
:1000A000DD6A0001E72B000EE823E923EA23FC0EBA
:1000B000DB0402E0000E01D0010E006EFC0EDB50EE
:1000C00002E0000E01D0010E00105CE0D00E0C6EBC
:1000D000060E0D6E000E0E6EFD0EDB040F6E106A26
:1000E000116AD8900F36103611360C500F24F36E6B
:1000F0000D501020F46E0E501120F7D8F5CF0AF0F5
:100100000800F5CF0BF0B00E046E060E056E000E63
:10011000066EFE0EDB50BF0F076E086A096AD890A4
:1001200007360836093604500724F36E05500820B8
:10013000F46E06500920D9D8F5500A10026E090055
:10014000F5500B10036EF00E126E060E136E000EBD
:10015000146EFC0EDBCF15F0166A176AD8901536B0
:100160001636173612501524F36E13501620F46EFF
:1001700014501720BAD8F5500210006E0900F5503F
:1001800003103CD0F00E0A6E060E0B6E000E0C6EC5
:10019000FC0EDBCF0DF00E6A0F6AD8900D360E36CE
:1001A0000F360A500D24F36E0B500E20F46E0C50D7
:1001B0000F209BD8F5CF08F00800F5CF09F0B00E5E
:1001C000026E060E036E000E046EFE0EDB50BF0FB5
:1001D000056E066A076AD89005360636073602505D
:1001E0000524F36E03500620F46E045007207DD8DA
:1001F000F5500810006E0900F550091000C0DEFF30
:10020000DD6ED50EF36E020EF3CFDBFFAA0EF36E9A
:10021000030EF3CFDBFFDECF00F0DDCF01F001C036
:1002200000F0016A040E00C0DBFFDECF00F0DDCF7E
:1002300001F0FF0E0016000E0116050E00C0DBFFD8
:10024000AD0EF36E060EF3CFDBFF8A928A90010E9D
:1002500053D88A828A80230E4FD8070EDB6A050E98
:10026000F36E070EDBCFF4FFF350F45C2DE2800E4B
:10027000F36E080EF3CFDBFFDB5023E0080EDBCF7D
:10028000E6FFD950020F006EDACF01F0070EDB5007
:100290000F010024E96E000EDA20EA6EEF50E552FD
:1002A000E71402E08A9201D08A90010E25D88A8252
:1002B0008A80010E21D8080EDBCFF3FFF390F342C2
:1002C000D9D7070EDB2ACBD7640E16D88A928A902C
:1002D000010E12D8090EE15C02E2E16AE552E16E1C
:1002E00016D019D8010EE66E1200F86EF4CFF7FFA3
:1002F000F3CFF6FF09001200E66E90DEE552120021
:10030000D9CFE6FFE1CFD9FFE652DF6A1200E5520E
:10031000E7CFD9FF1200060EE66E4D0EE66EA2DEA6
:0A032000E552E552E552E5521200E5
:06032A00DACFE4FFE2CF90
:10033000DAFFE9CFE4FFEACFE4FFF6CFE4FFF7CF3F
:10034000E4FFF8CFE4FFF5CFE4FFF3CFE4FFF4CF11
:10035000E4FFFACFE4FFFBCFE4FF00EE1CF0020E57
:10036000E80403E3EECFE4FFFBD700EE00F0180E45
:10037000E80403E3EECFE4FFFBD7E6529EA037D0BC
:100380009E900001C42B000EC523C623C7232FD97E
:100390008050010B10E08050020B0DE08050040BE8
:1003A0000AE08050080B07E00001D26BD36BDA6BD8
:1003B0008A94DB6B1CD00001DA51DA2B320817E289
:1003C0000001CC2B000ECD23CE23CF230001DB5127
:1003D000DB2B186E640E185C02E28A8403D08A94C8
:1003E000640EDB6F010ED26FD36F320EDA6FF2A4A0
:1003F0002BD0F2940001C82B000EC923CA23CB23B3
:10040000FFD88A760001D3511BE080B005D0D3D845
:1004100002E08A8801D08A9880B205D0CCD802E068
:100420008A8A01D08A9A80B405D0C5D802E08A8C25
:1004300001D08A9C80B608D0BED805E18A9E04D03F
:100440008A888A8A8A8C8A8EE55200EE17F0180E06
:10045000E80403E3E5CFEDFFFBD700EE1DF0020E4D
:10046000E80403E3E5CFEDFFFBD7E5CFFBFFE5CFE6
:10047000FAFFE5CFF4FFE5CFF3FFE5CFF5FFE5CFDA
:10048000F8FFE5CFF7FFE5CFF6FFE5CFEAFFE5CFD1
:10049000E9FFE5CFDAFF11000001D25141E0F29E01
:1004A0007C0ED06FE10ED16FF28E80B00CD0DC519B
:1004B00007E08A98050EE66E010EE66E0B0E8DD8EB
:1004C0000001DC6B01D08A8880B20CD0DC5107E0DF
:1004D0008A9A050EE66E010EE66E060E7ED80001C3
:1004E000DC6B01D08A8A80B40BD0DC5106E08A9C98
:1004F000050EE66EE66A060E70D80001DC6B01D0D0
:100500008A8C80B60BD0DC5106E08A9E050EE66E22
:10051000E66A0B0E62D80001DC6B0AD08A8E08D026
:10052000010EDC6FF29EDC0ED06F850ED16FF28E65
:10053000F36AF46A120080A802D0F36A14D0F29E23
:1005400000017C0ED06FE10ED16FF28E21EC00F035
:1005500080A8FCD7F29E0001DC0ED06F850ED16F13
:10056000F28E010EF36EF46A12007F0EC16E720EEF
:10057000D36E9B6A0F0E926E936A9288D08E8A8891
:100580008A8A8A8C8A8E8A948A86950EE66ED5EC43
:1005900003F0E55235D8C50EE66E7CEC03F0E5526B
:1005A00026D8F28AF1849D809F80F28E1CEC00F0A8
:1005B000C2DF72DFFED7C8C018F0C9C019F0CAC0C8
:1005C0001AF0CBC01BF0010E1816196A1A6A1B6AC2
:1005D000185019101A101B101200E66E4D0EE66E20
:1005E00032EC00F0E552E552E552E5521200C00E41
:1005F000E66EDA0EE66E9DEC03F0E552E55212006F
:10060000D0C0E6FFD1C0E6FFB9EC03F0E552E552F9
:020610001200D6
:0E0612000E0EF66E000EF76E000EF86E000172
:100620000900F550E26F0900F550E36F03E1E2675E
:1006300001D03DD00900F550DD6F0900F550DE6FA7
:100640000900F550DF6F09000900F550E96E090057
:10065000F550EA6E090009000900F550E06F090045
:10066000F550E16F09000900F6CFE4F0F7CFE5F0AF
:10067000F8CFE6F0DDC0F6FFDEC0F7FFDFC0F8FF21
:100680000001E05302E1E15307E00900F550EE6E8E
:10069000E007F8E2E107F9D7E4C0F6FFE5C0F7FFAD
:1006A000E6C0F8FF0001E207000EE35BBFD71200CF
:1006B00000600070004000500080009000A000B07A
:1006C00000E000F000C000D000000010002000306A
:1006D00000001000080018004000500048005800BA
:1006E000000410040804180440045004480458048A
:0806F0000000200088009800C2
:0806F800D9CFE6FFDACFE6FFDF
:10070000E1CFD9FFE2CFDAFFFD0EDB507E0BCD6EDD
:10071000FD0EDBAC02D0CD8E01D0CD9ECF6ACE6A6D
:100720009E90DBAE02D09D8001D09D90CD80E552A1
:0A073000E5CFDAFFE7CFD9FF120092
:06073A00D9CFE6FFDACF83
:10074000E6FFE1CFD9FFE2CFDAFFE652E652FC0E38
:10075000DBCFDEFFDBCFDDFF010EDB50CF6EDF50E6
:10076000CE6EE552E552E552E5CFDAFFE7CFD9FF8D
:02077000120075
:0E077200D9CFE6FFDACFE6FFE1CFD9FFE2CF25
:10078000DAFFE652E652FC0EDBCFDEFFDBCFDDFF09
:10079000010EDB50D76EDF50D66EE552E552E552C2
:0A07A000E5CFDAFFE7CFD9FF120022
:0607AA00D9CFE6FFDACF13
:1007B000E6FFE1CFD9FFE2CFDAFFFD0EDB507F0B82
:1007C000D56ED76AD66AF294FD0EDBAE02D0F28AFD
:1007D00001D0F29AD58EE552E5CFDAFFE7CFD9FF07
:0207E000120005
:0E07E200FF0EE3501E6E480E01D04C0EE76E67
:1007F000E72EFED7E76AE72EFED71E2EF7D70000BA
:020800001200E4
:0E080200000EF36E00EE00F0010E01D81200A1
:10081000EA6002D0EE6AFCD7F350E9601200EE6A9B
:02082000FCD703
:0E08220010EE80F020EE80F0F86A1D9C09ECCC
:0E08300003F003EC00F0B5EC02F0FBD7120071
:02083E00303652
:100840003A30333A3336004170722030392032303A
:030850003135003F
:0D085300DC8500004708003E0800000001A1
:020000040030CA
:01000100C836
:010002000FEE
:010003001EDE
:01000500807A
:010006008178
:0100080003F4
:01000900C036
:01000A0003F2
:01000B00E014
:01000C0003F0
:01000D0040B2
:00000001FF
